{
  "transactions": [
    {
      "hash": "0xfabe4e9fad75a84f8528bf946fe59194006c498e27b9ddd6e3fdaa66b9b2c8ce",
      "transactionType": "CALL",
      "contractName": null,
      "contractAddress": "0xcebe49a7f835b468a92518eabb947838111ad79f",
      "function": "mintNft(string)",
      "arguments": [
        "ipfs://bafybeig37ioir76s7mg5oobetncojcm3c3hxasyd4rvid4jqhy4gkaheg4/?filename=0-PUG.json"
      ],
      "transaction": {
        "from": "0x6498f75bc8ae3cdedbba44ec9943a9eb0e44c8c8",
        "to": "0xcebe49a7f835b468a92518eabb947838111ad79f",
        "gas": "0x3f5c5",
        "value": "0x0",
        "input": "0xda86f4a900000000000000000000000000000000000000000000000000000000000000200000000000000000000000000000000000000000000000000000000000000057697066733a2f2f62616679626569673337696f6972373673376d67356f6f6265746e636f6a636d3363336878617379643472766964346a71687934676b61686567342f3f66696c656e616d653d302d5055472e6a736f6e000000000000000000",
        "nonce": "0x25",
        "chainId": "0xaa36a7"
      },
      "additionalContracts": [],
      "isFixedGasLimit": false
    }
  ],
  "receipts": [
    {
      "status": "0x1",
      "cumulativeGasUsed": "0x1151e43",
      "logs": [
        {
          "address": "0xcebe49a7f835b468a92518eabb947838111ad79f",
          "topics": [
            "0xddf252ad1be2c89b69c2b068fc378daa952ba7f163c4a11628f55a4df523b3ef",
            "0x0000000000000000000000000000000000000000000000000000000000000000",
            "0x0000000000000000000000006498f75bc8ae3cdedbba44ec9943a9eb0e44c8c8",
            "0x0000000000000000000000000000000000000000000000000000000000000000"
          ],
          "data": "0x",
          "blockHash": "0xc58de2ceba435ae5d0ee4bf2ff2f2f01270896abc1abc79f972e176fb56f8b36",
          "blockNumber": "0x914be3",
          "blockTimestamp": "0x690339f0",
          "transactionHash": "0xfabe4e9fad75a84f8528bf946fe59194006c498e27b9ddd6e3fdaa66b9b2c8ce",
          "transactionIndex": "0x3b",
          "logIndex": "0x62",
          "removed": false
        }
      ],
      "logsBloom": "0x00000000000000000000000000000000000000000000000000000000000000000000000000000000000000000000000000000000000000000000000000000000000000000000000000000088000000000000000000000000000000000000000000000000020000000000000000000800004000000000000000000010000000000000000000000000000000000000000000000000000000000000000000000000000000000000000000000000000000000000000000000080000000000000000000000002000000000000000040000000000000000000000000000000000020000000000000000000000000000000000000000000000000000080000020000000",
      "type": "0x2",
      "transactionHash": "0xfabe4e9fad75a84f8528bf946fe59194006c498e27b9ddd6e3fdaa66b9b2c8ce",
      "transactionIndex": "0x3b",
      "blockHash": "0xc58de2ceba435ae5d0ee4bf2ff2f2f01270896abc1abc79f972e176fb56f8b36",
      "blockNumber": "0x914be3",
      "gasUsed": "0x2ddf4",
      "effectiveGasPrice": "0xf4249",
      "from": "0x6498f75bc8ae3cdedbba44ec9943a9eb0e44c8c8",
      "to": "0xcebe49a7f835b468a92518eabb947838111ad79f",
      "contractAddress": null
    }
  ],
  "libraries": [],
  "pending": [],
  "returns": {},
  "timestamp": 1761819120833,
  "chain": 11155111,
  "commit": "75ccf1e"
}